{
  "_format": "hh-sol-artifact-1",
  "contractName": "PipelineShop",
  "sourceName": "contracts/PipelineShop.sol",
  "abi": [
    {
      "inputs": [
        {
          "internalType": "address",
          "name": "_tokenAddress",
          "type": "address"
        },
        {
          "internalType": "address",
          "name": "_nftAddress",
          "type": "address"
        }
      ],
      "stateMutability": "nonpayable",
      "type": "constructor"
    },
    {
      "anonymous": false,
      "inputs": [
        {
          "indexed": false,
          "internalType": "uint256",
          "name": "pipelineId",
          "type": "uint256"
        },
        {
          "indexed": false,
          "internalType": "address",
          "name": "user",
          "type": "address"
        }
      ],
      "name": "PipelinePayed",
      "type": "event"
    },
    {
      "inputs": [
        {
          "internalType": "uint256",
          "name": "pipelineId",
          "type": "uint256"
        },
        {
          "internalType": "uint256",
          "name": "price",
          "type": "uint256"
        }
      ],
      "name": "buyPipeline",
      "outputs": [],
      "stateMutability": "nonpayable",
      "type": "function"
    },
    {
      "inputs": [
        {
          "internalType": "uint256",
          "name": "pipelineId",
          "type": "uint256"
        },
        {
          "internalType": "address",
          "name": "user",
          "type": "address"
        }
      ],
      "name": "isPayed",
      "outputs": [
        {
          "internalType": "uint256",
          "name": "",
          "type": "uint256"
        }
      ],
      "stateMutability": "view",
      "type": "function"
    },
    {
      "inputs": [],
      "name": "nftAddress",
      "outputs": [
        {
          "internalType": "address",
          "name": "",
          "type": "address"
        }
      ],
      "stateMutability": "view",
      "type": "function"
    },
    {
      "inputs": [
        {
          "internalType": "uint256",
          "name": "",
          "type": "uint256"
        },
        {
          "internalType": "address",
          "name": "",
          "type": "address"
        }
      ],
      "name": "pipelines",
      "outputs": [
        {
          "internalType": "bool",
          "name": "",
          "type": "bool"
        }
      ],
      "stateMutability": "view",
      "type": "function"
    },
    {
      "inputs": [],
      "name": "tokenAddress",
      "outputs": [
        {
          "internalType": "address",
          "name": "",
          "type": "address"
        }
      ],
      "stateMutability": "view",
      "type": "function"
    }
  ],
  "bytecode": "0x608060405234801561001057600080fd5b506040516107e63803806107e68339818101604052810190610032919061011e565b81600160006101000a81548173ffffffffffffffffffffffffffffffffffffffff021916908373ffffffffffffffffffffffffffffffffffffffff16021790555080600260006101000a81548173ffffffffffffffffffffffffffffffffffffffff021916908373ffffffffffffffffffffffffffffffffffffffff160217905550505061015e565b600080fd5b600073ffffffffffffffffffffffffffffffffffffffff82169050919050565b60006100eb826100c0565b9050919050565b6100fb816100e0565b811461010657600080fd5b50565b600081519050610118816100f2565b92915050565b60008060408385031215610135576101346100bb565b5b600061014385828601610109565b925050602061015485828601610109565b9150509250929050565b6106798061016d6000396000f3fe608060405234801561001057600080fd5b50600436106100575760003560e01c80630ce93a9e1461005c57806339d8545d1461008c5780635bf8633a146100a85780639c46cae6146100c65780639d76ea58146100f6575b600080fd5b61007660048036038101906100719190610480565b610114565b60405161008391906104cf565b60405180910390f35b6100a660048036038101906100a191906104ea565b610197565b005b6100b061036c565b6040516100bd9190610539565b60405180910390f35b6100e060048036038101906100db9190610480565b610392565b6040516100ed919061056f565b60405180910390f35b6100fe6103c1565b60405161010b9190610539565b60405180910390f35b6000806000905060008085815260200190815260200160002060008473ffffffffffffffffffffffffffffffffffffffff1673ffffffffffffffffffffffffffffffffffffffff16815260200190815260200160002060009054906101000a900460ff1661018657600090508061018c565b60019050805b508091505092915050565b600160009054906101000a900473ffffffffffffffffffffffffffffffffffffffff1673ffffffffffffffffffffffffffffffffffffffff166323b872dd3330846040518463ffffffff1660e01b81526004016101f69392919061058a565b6020604051808303816000875af1158015610215573d6000803e3d6000fd5b505050506040513d601f19601f8201168201806040525081019061023991906105ed565b50600160008084815260200190815260200160002060003373ffffffffffffffffffffffffffffffffffffffff1673ffffffffffffffffffffffffffffffffffffffff16815260200190815260200160002060006101000a81548160ff021916908315150217905550600260009054906101000a900473ffffffffffffffffffffffffffffffffffffffff1673ffffffffffffffffffffffffffffffffffffffff166340d097c3336040518263ffffffff1660e01b81526004016102fd9190610539565b600060405180830381600087803b15801561031757600080fd5b505af115801561032b573d6000803e3d6000fd5b505050507f3a8497e88b3e3361e0d5bb742d2f6d5df8143d2dbfefccaa06ba4bd398d26f38823360405161036092919061061a565b60405180910390a15050565b600260009054906101000a900473ffffffffffffffffffffffffffffffffffffffff1681565b60006020528160005260406000206020528060005260406000206000915091509054906101000a900460ff1681565b600160009054906101000a900473ffffffffffffffffffffffffffffffffffffffff1681565b600080fd5b6000819050919050565b6103ff816103ec565b811461040a57600080fd5b50565b60008135905061041c816103f6565b92915050565b600073ffffffffffffffffffffffffffffffffffffffff82169050919050565b600061044d82610422565b9050919050565b61045d81610442565b811461046857600080fd5b50565b60008135905061047a81610454565b92915050565b60008060408385031215610497576104966103e7565b5b60006104a58582860161040d565b92505060206104b68582860161046b565b9150509250929050565b6104c9816103ec565b82525050565b60006020820190506104e460008301846104c0565b92915050565b60008060408385031215610501576105006103e7565b5b600061050f8582860161040d565b92505060206105208582860161040d565b9150509250929050565b61053381610442565b82525050565b600060208201905061054e600083018461052a565b92915050565b60008115159050919050565b61056981610554565b82525050565b60006020820190506105846000830184610560565b92915050565b600060608201905061059f600083018661052a565b6105ac602083018561052a565b6105b960408301846104c0565b949350505050565b6105ca81610554565b81146105d557600080fd5b50565b6000815190506105e7816105c1565b92915050565b600060208284031215610603576106026103e7565b5b6000610611848285016105d8565b91505092915050565b600060408201905061062f60008301856104c0565b61063c602083018461052a565b939250505056fea26469706673582212207d8d56de18430532b1bfa0e408387301a45cb174f7222a2a66379e102548397864736f6c63430008110033",
  "linkReferences": {},
  "deployedLinkReferences": {}
}